{
  "_format": "hh-sol-artifact-1",
  "contractName": "Marketplace",
  "sourceName": "src/backend/contracts/Marketplace.sol",
  "abi": [
    {
      "inputs": [
        {
          "internalType": "uint256",
          "name": "_freePercent",
          "type": "uint256"
        }
      ],
      "stateMutability": "nonpayable",
      "type": "constructor"
    },
    {
      "anonymous": false,
      "inputs": [
        {
          "indexed": false,
          "internalType": "uint256",
          "name": "itemId",
          "type": "uint256"
        },
        {
          "indexed": true,
          "internalType": "address",
          "name": "nft",
          "type": "address"
        },
        {
          "indexed": false,
          "internalType": "uint256",
          "name": "tokenId",
          "type": "uint256"
        },
        {
          "indexed": false,
          "internalType": "uint256",
          "name": "price",
          "type": "uint256"
        },
        {
          "indexed": true,
          "internalType": "address",
          "name": "buyer",
          "type": "address"
        }
      ],
      "name": "Bought",
      "type": "event"
    },
    {
      "anonymous": false,
      "inputs": [
        {
          "indexed": false,
          "internalType": "uint256",
          "name": "itemId",
          "type": "uint256"
        },
        {
          "indexed": true,
          "internalType": "address",
          "name": "nft",
          "type": "address"
        },
        {
          "indexed": false,
          "internalType": "uint256",
          "name": "tokenId",
          "type": "uint256"
        },
        {
          "indexed": false,
          "internalType": "uint256",
          "name": "price",
          "type": "uint256"
        },
        {
          "indexed": true,
          "internalType": "address",
          "name": "seller",
          "type": "address"
        }
      ],
      "name": "Offered",
      "type": "event"
    },
    {
      "inputs": [],
      "name": "freePercent",
      "outputs": [
        {
          "internalType": "uint256",
          "name": "",
          "type": "uint256"
        }
      ],
      "stateMutability": "view",
      "type": "function"
    },
    {
      "inputs": [
        {
          "internalType": "uint256",
          "name": "_itemId",
          "type": "uint256"
        }
      ],
      "name": "getTotalPrice",
      "outputs": [
        {
          "internalType": "uint256",
          "name": "",
          "type": "uint256"
        }
      ],
      "stateMutability": "view",
      "type": "function"
    },
    {
      "inputs": [],
      "name": "itemCount",
      "outputs": [
        {
          "internalType": "uint256",
          "name": "",
          "type": "uint256"
        }
      ],
      "stateMutability": "view",
      "type": "function"
    },
    {
      "inputs": [
        {
          "internalType": "uint256",
          "name": "",
          "type": "uint256"
        }
      ],
      "name": "items",
      "outputs": [
        {
          "internalType": "uint256",
          "name": "itemId",
          "type": "uint256"
        },
        {
          "internalType": "contract IERC721",
          "name": "nft",
          "type": "address"
        },
        {
          "internalType": "uint256",
          "name": "tokenId",
          "type": "uint256"
        },
        {
          "internalType": "uint256",
          "name": "price",
          "type": "uint256"
        },
        {
          "internalType": "address payable",
          "name": "seller",
          "type": "address"
        },
        {
          "internalType": "bool",
          "name": "sold",
          "type": "bool"
        }
      ],
      "stateMutability": "view",
      "type": "function"
    },
    {
      "inputs": [
        {
          "internalType": "contract IERC721",
          "name": "_nft",
          "type": "address"
        },
        {
          "internalType": "uint256",
          "name": "_tokenId",
          "type": "uint256"
        },
        {
          "internalType": "uint256",
          "name": "_price",
          "type": "uint256"
        }
      ],
      "name": "makeItem",
      "outputs": [],
      "stateMutability": "nonpayable",
      "type": "function"
    },
    {
      "inputs": [
        {
          "internalType": "uint256",
          "name": "_itemId",
          "type": "uint256"
        }
      ],
      "name": "purchaseItem",
      "outputs": [],
      "stateMutability": "payable",
      "type": "function"
    }
  ],
  "bytecode": "0x60c060405234801561001057600080fd5b5060405161107c38038061107c83398181016040528101906100329190610094565b60016000819055503373ffffffffffffffffffffffffffffffffffffffff1660808173ffffffffffffffffffffffffffffffffffffffff1660601b815250508060a08181525050506100de565b60008151905061008e816100c7565b92915050565b6000602082840312156100a657600080fd5b60006100b48482850161007f565b91505092915050565b6000819050919050565b6100d0816100bd565b81146100db57600080fd5b50565b60805160601c60a051610f6f61010d6000396000818161017c015261022d0152600061044f0152610f6f6000f3fe6080604052600436106100555760003560e01c80636bfb0d011461005a578063acdc5e1614610085578063bfb231d2146100b0578063ca7dd375146100f2578063d38ea5bf1461012f578063fa00afc71461014b575b600080fd5b34801561006657600080fd5b5061006f610174565b60405161007c9190610b5e565b60405180910390f35b34801561009157600080fd5b5061009a61017a565b6040516100a79190610b5e565b60405180910390f35b3480156100bc57600080fd5b506100d760048036038101906100d29190610964565b61019e565b6040516100e996959493929190610b79565b60405180910390f35b3480156100fe57600080fd5b5061011960048036038101906101149190610964565b610227565b6040516101269190610b5e565b60405180910390f35b61014960048036038101906101449190610964565b61028a565b005b34801561015757600080fd5b50610172600480360381019061016d9190610915565b610619565b005b60015481565b7f000000000000000000000000000000000000000000000000000000000000000081565b60026020528060005260406000206000915090508060000154908060010160009054906101000a900473ffffffffffffffffffffffffffffffffffffffff16908060020154908060030154908060040160009054906101000a900473ffffffffffffffffffffffffffffffffffffffff16908060040160149054906101000a900460ff16905086565b600060647f000000000000000000000000000000000000000000000000000000000000000060646102589190610c53565b60026000858152602001908152602001600020600301546102799190610c53565b6102839190610c22565b9050919050565b600260005414156102d0576040517f08c379a00000000000000000000000000000000000000000000000000000000081526004016102c790610b3e565b60405180910390fd5b600260008190555060006102e382610227565b9050600060026000848152602001908152602001600020905060008311801561030e57506001548311155b61034d576040517f08c379a000000000000000000000000000000000000000000000000000000000815260040161034490610b1e565b60405180910390fd5b81341015610390576040517f08c379a000000000000000000000000000000000000000000000000000000000815260040161038790610afe565b60405180910390fd5b8060040160149054906101000a900460ff16156103e2576040517f08c379a00000000000000000000000000000000000000000000000000000000081526004016103d990610ade565b60405180910390fd5b8060040160009054906101000a900473ffffffffffffffffffffffffffffffffffffffff1673ffffffffffffffffffffffffffffffffffffffff166108fc839081150290604051600060405180830381858888f1935050505015801561044c573d6000803e3d6000fd5b507f000000000000000000000000000000000000000000000000000000000000000073ffffffffffffffffffffffffffffffffffffffff166108fc8260030154846104979190610cad565b9081150290604051600060405180830381858888f193505050501580156104c2573d6000803e3d6000fd5b5060018160040160146101000a81548160ff0219169083151502179055508060010160009054906101000a900473ffffffffffffffffffffffffffffffffffffffff1673ffffffffffffffffffffffffffffffffffffffff166323b872dd303384600201546040518463ffffffff1660e01b815260040161054593929190610a87565b600060405180830381600087803b15801561055f57600080fd5b505af1158015610573573d6000803e3d6000fd5b505050503373ffffffffffffffffffffffffffffffffffffffff168160010160009054906101000a900473ffffffffffffffffffffffffffffffffffffffff1673ffffffffffffffffffffffffffffffffffffffff167f2e7d4e839ea439fefc52ab6d45432309345048a9d9b912e932c22406eb896570858460020154856003015460405161060493929190610bda565b60405180910390a35050600160008190555050565b6002600054141561065f576040517f08c379a000000000000000000000000000000000000000000000000000000000815260040161065690610b3e565b60405180910390fd5b6002600081905550600081116106aa576040517f08c379a00000000000000000000000000000000000000000000000000000000081526004016106a190610abe565b60405180910390fd5b8273ffffffffffffffffffffffffffffffffffffffff166323b872dd3330856040518463ffffffff1660e01b81526004016106e793929190610a87565b600060405180830381600087803b15801561070157600080fd5b505af1158015610715573d6000803e3d6000fd5b505050506040518060c0016040528060015481526020018473ffffffffffffffffffffffffffffffffffffffff1681526020018381526020018281526020013373ffffffffffffffffffffffffffffffffffffffff168152602001600015158152506002600060015481526020019081526020016000206000820151816000015560208201518160010160006101000a81548173ffffffffffffffffffffffffffffffffffffffff021916908373ffffffffffffffffffffffffffffffffffffffff160217905550604082015181600201556060820151816003015560808201518160040160006101000a81548173ffffffffffffffffffffffffffffffffffffffff021916908373ffffffffffffffffffffffffffffffffffffffff16021790555060a08201518160040160146101000a81548160ff0219169083151502179055509050503373ffffffffffffffffffffffffffffffffffffffff168373ffffffffffffffffffffffffffffffffffffffff167f655a0cf9c8db81512be9a76dc1c5ae5380b8816ce6ad659cd61b715e2999d59a60015485856040516108be93929190610bda565b60405180910390a3600160008154809291906108d990610d71565b91905055506001600081905550505050565b6000813590506108fa81610f0b565b92915050565b60008135905061090f81610f22565b92915050565b60008060006060848603121561092a57600080fd5b6000610938868287016108eb565b935050602061094986828701610900565b925050604061095a86828701610900565b9150509250925092565b60006020828403121561097657600080fd5b600061098484828501610900565b91505092915050565b61099681610cf3565b82525050565b6109a581610ce1565b82525050565b6109b481610d05565b82525050565b6109c381610d4d565b82525050565b60006109d6601f83610c11565b91506109e182610e18565b602082019050919050565b60006109f9601483610c11565b9150610a0482610e41565b602082019050919050565b6000610a1c603283610c11565b9150610a2782610e6a565b604082019050919050565b6000610a3f601383610c11565b9150610a4a82610eb9565b602082019050919050565b6000610a62601f83610c11565b9150610a6d82610ee2565b602082019050919050565b610a8181610d43565b82525050565b6000606082019050610a9c600083018661099c565b610aa9602083018561099c565b610ab66040830184610a78565b949350505050565b60006020820190508181036000830152610ad7816109c9565b9050919050565b60006020820190508181036000830152610af7816109ec565b9050919050565b60006020820190508181036000830152610b1781610a0f565b9050919050565b60006020820190508181036000830152610b3781610a32565b9050919050565b60006020820190508181036000830152610b5781610a55565b9050919050565b6000602082019050610b736000830184610a78565b92915050565b600060c082019050610b8e6000830189610a78565b610b9b60208301886109ba565b610ba86040830187610a78565b610bb56060830186610a78565b610bc2608083018561098d565b610bcf60a08301846109ab565b979650505050505050565b6000606082019050610bef6000830186610a78565b610bfc6020830185610a78565b610c096040830184610a78565b949350505050565b600082825260208201905092915050565b6000610c2d82610d43565b9150610c3883610d43565b925082610c4857610c47610de9565b5b828204905092915050565b6000610c5e82610d43565b9150610c6983610d43565b9250817fffffffffffffffffffffffffffffffffffffffffffffffffffffffffffffffff0483118215151615610ca257610ca1610dba565b5b828202905092915050565b6000610cb882610d43565b9150610cc383610d43565b925082821015610cd657610cd5610dba565b5b828203905092915050565b6000610cec82610d23565b9050919050565b6000610cfe82610d23565b9050919050565b60008115159050919050565b6000610d1c82610ce1565b9050919050565b600073ffffffffffffffffffffffffffffffffffffffff82169050919050565b6000819050919050565b6000610d5882610d5f565b9050919050565b6000610d6a82610d23565b9050919050565b6000610d7c82610d43565b91507fffffffffffffffffffffffffffffffffffffffffffffffffffffffffffffffff821415610daf57610dae610dba565b5b600182019050919050565b7f4e487b7100000000000000000000000000000000000000000000000000000000600052601160045260246000fd5b7f4e487b7100000000000000000000000000000000000000000000000000000000600052601260045260246000fd5b7f5072696365206d7573742062652067726561746572207468616e207a65726f00600082015250565b7f6974656d20697320616c726561647920736f6c64000000000000000000000000600082015250565b7f6e6f7420656e6f676820657468657220746f20636f766572206974656d20707260008201527f69636520616e64206d61726b6574206665650000000000000000000000000000602082015250565b7f4974656d20646f6573206e6f7420657869737400000000000000000000000000600082015250565b7f5265656e7472616e637947756172643a207265656e7472616e742063616c6c00600082015250565b610f1481610d11565b8114610f1f57600080fd5b50565b610f2b81610d43565b8114610f3657600080fd5b5056fea2646970667358221220f8333921528a4f0260da5407d54058bcd7c909ef6c10460d5fb11a2808b10fe164736f6c63430008040033",
  "linkReferences": {},
  "deployedLinkReferences": {}
}